:020000040800F2
:10400000040E002099420008014200080142000805
:104010000142000801420008014200080142000874
:104020000142000801420008014200080142000864
:104030000142000801420008014200080142000854
:104040000142000801420008014200080142000844
:104050000142000801420008014200080142000834
:104060000142000801420008014200080142000824
:104070000142000801420008014200080142000814
:104080000142000801420008014200080142000804
:1040900001420008014200080142000801420008F4
:1040A00001420008014200080142000801420008E4
:1040B00001420008014200080142000801420008D4
:1040C00001420008014200080142000801420008C4
:1040D00001420008014200080142000801420008B4
:1040E00001420008014200080142000801420008A4
:1040F0000142000801420008014200080142000894
:104100000142000801420008014200080142000883
:104110000142000801420008014200080142000873
:104120000142000801420008014200080142000863
:104130000142000801420008014200080142000853
:104140000142000801420008014200080142000843
:104150000142000801420008014200080142000833
:104160000142000801420008014200080142000823
:104170000142000801420008014200080142000813
:104180000142000801420008014200080142000803
:1041900001420008014200080142000801420008F3
:1041A00001420008014200080142000801420008E3
:1041B00001420008014200080142000801420008D3
:1041C00001420008014200080142000801420008C3
:1041D00001420008014200080142000801420008B3
:1041E00001420008014200080142000801420008A3
:1041F0000142000801420008014200080142000893
:104200001EF0040F0DD0EFF3098000F1100090E8CC
:104210000E102DE90E10EFF3098090E80E102DE935
:104220000E1001B400B5EFF30881EFF3098003B479
:104230002DE9F00F684600F0ADF8FEE78446012551
:1042400010690009FCD30F6914692009FBD2780BAF
:104250000CEB0026C7F34B077F0014692009F2D24C
:10426000A00BFAD2C4F3051056F820301B42F4D04C
:10427000D85B1469A30B3EBF2C049461486102D340
:104280002309F6D3DFE75FF0FF331B0C1069840BC3
:10429000FCD395618B82D3E772B6074880F3088818
:1042A000064880F309884FF0020080F31488BFF3BA
:1042B0006F8F034887460000040E0020051200207F
:1042C000CD43000872B60422274B28491A604FF0EC
:1042D000FF33274A13605360264A0A60C1F8F8305A
:1042E000C1F8FC30C1F80021002223490A604A606D
:1042F0000A614B614FF0803320490B604B608B604B
:10430000CB600B6114310B604B608B60CB600B6139
:104310004B618B61CB610B624B628B62CB620B6337
:104320004B638B63CB63164B1649103B19614FF0FF
:1043300000515961144999614FF0206143F8041C00
:104340001249596012499A601960BFF34F8F4FF4B8
:10435000E0211C33196082F3138882F311884FF433
:10436000067243F8102C704710E000E088E100E08E
:1043700080E100E0FFFF0F00003C014000E400E0AE
:1043800018ED00E0081018000000F8C00002FA055F
:1043900000400008FEE7000008B50748074A002172
:1043A000121A00F025FABDE808400548054A0649FA
:1043B000121A00F045BA00BF00000020040C0020D3
:1043C0000000002000000020644900082DE9F041B1
:1043D00072B6072241F607015B4B1A6019601A603A
:1043E000A3F580631A6842F001021A601A68910707
:1043F000FCD556490B6823F003030B60BFF36F8FA6
:10440000BFF34F8F0B6813F00C0FFBD1504A1368AA
:1044100023F080731360BFF36F8FBFF34F8F4FF69E
:10442000FF70022304464FF47A56DFF844C1DFF8E8
:1044300044E1DFF84481474DBCFBF3F272451CD9DF
:10444000B8FBF3F2AA4215D805FB03F2B2FBF6F271
:1044500006FB02F7B7FBF3F7AF4204D1A2423CBF21
:104460001846144606E0013A06FB02F7B7FBF3F7DD
:10447000AF42F3D00133402BDED1374B40F0A06088
:1044800040EA84101860BFF36F8FBFF34F8F043B77
:104490001A6842F080721A601A6822F400221A60C8
:1044A000BFF36F8FBFF34F8F1A689201FCD54FF4A3
:1044B000344303220B60244B1A60BFF36F8FBFF3AA
:1044C0004F8F41F603001860BFF36F8FBFF34F8F1C
:1044D0001A60BFF36F8FBFF34F8F40F203721A6001
:1044E0000B6823F0030343F002030B60BFF36F8FED
:1044F000BFF34F8F0B6803F00C03082BFAD1174A58
:10450000174B1360136200235360536293609362EE
:104510004FF08053136113634FF48043536153632F
:10452000FFF73AFFFFF7CEFEBDE8F04104220D4B46
:104530000D491A600D4A043141F8042C0A60052225
:104540001A6000F01BB800BF003C0240083802406F
:104550000038024080A9030004380240303802408D
:10456000FF81670010E000E014E000E0BFD401002C
:10457000007869007FA9030000E02E008B4B80B516
:104580005A688B4942F008025A601A6822F0C00249
:1045900042F040021A60DA6822F0C002DA609A68DB
:1045A00022F0C0029A6008229A610A6842F48042AE
:1045B0000A600A6A42F480420A62BFF34F8FBFF377
:1045C0006F8F01217B4A11601168CD05FCD508224F
:1045D0005A604FF402725A61774A40F241111A60F0
:1045E000764A7748DA604FF480229A604FF6FF737C
:1045F00002F18042A2F5FE32536053614FF0553311
:1046000013600023D3609360C2F804140121C2F840
:104610001414C2F800046B480224C2F80C04C2F857
:1046200008144FF0AA31C2F80438C2F81438C2F89E
:104630000038C2F80C18C2F8083802F5406253601E
:1046400053611360D1609360C2F80434C2F814342B
:10465000C2F80034C2F80C14C2F80834C2F80438A6
:10466000C2F81438C2F80038C2F80C18C2F808387A
:10467000C2F8043CC2F8143CC2F8003CC2F80C1C5E
:10468000C2F8083CBC224FF47A764F4B4F4F504D46
:104690001A603A682868013206FB02F3B3FBF6F3AE
:1046A000101A03442968511A994246D3012C42D169
:1046B0003E4A1369116983F080034C061169C3F304
:1046C000C013126958BF43F00203880658BF43F075
:1046D0000403D106354A58BF43F0080312693D4C24
:1046E000520758BF43F010034FF4006200213A48CC
:1046F000236000F07DF8206800F00F000F283AD00A
:1047000042F2010642F2020E42F2100C334B324FDB
:104710009A5D032A2FD103F50052117807292AD870
:104720001A1812F80E2007EB0121112A1DD00BD800
:10473000EAB16344ECE70124ABE7884202D99A422C
:10474000B4D89B1A0846ADE7222A12D0332AF0D1FA
:1047500008240022144204D151F822500DB941F826
:1047600022300132402AF5D1E3E70124F1E7202489
:10477000EFE70224EDE71A491A4A21F001011A4C29
:1047800022F00102521A0832204600F059F84FF484
:104790000022064B44F001049A6102F18042A2F526
:1047A000BF2212490C48A047FEE700BF00000240AC
:1047B0004438024020380140400004281655824207
:1047C000011001006845A4A60070004014E000E05C
:1047D00018E000E00004002004040020008000082D
:1047E0003D420008984200080000002000040240FA
:1047F0008446EAB110F0030F04D000F8011B013A1F
:10480000F8D1704701F0FF0141EA012141EA01417D
:10481000043A28BF40F8041BFAD809D0043200F843
:10482000011B013A04D000F8011B013A00D00170CD
:044830006046704727
:0C483400FFFFFFFFFFFFFFFFFFFFFFFF84
:104840008AB38446431A13F0030F2DD1072A24DDBF
:1048500011F0030317D011F8013B0CF8013B013AAA
:1048600021D011F003030ED011F8013B0CF8013BED
:10487000013A18D011F0030305D011F8013B0CF8F0
:10488000013B013A0FD051F8043B043A28BF4CF8E1
:10489000043BF8D807D00432043911F8013B0CF876
:1048A000013B013AF9D1704711F0010F05D011F821
:1048B000013B0CF8013B013AF5D011F0020F0AD090
:1048C00031F8023B0CF8013B013AECD01B0A0CF822
:1048D000013B013AE7D0043A30D31CF0030F27D054
:1048E0001CF0010F14D003E0AFF30080AFF30080A1
:1048F00051F8043B0CF8013B1B0A2CF8023B1B0C43
:104900000CF8013B043AF3D218E000BFAFF300808B
:1049100051F8043B2CF8023B1B0C2CF8023B043AE8
:10492000F6D20BE0AFF30080AFF30080AFF300806E
:1049300051F8043B4CF8043B043AF9D20432B2D0AB
:1049400012F0020F06D031F8023B0CF8013B1B0AB3
:104950000CF8013B12F0010F1CBF0B788CF80030F3
:04496000704700BFDD
:040000050800429914
:00000001FF
